{
  "contractName": "Marketplace",
  "abi": [
    {
      "inputs": [],
      "stateMutability": "nonpayable",
      "type": "constructor"
    },
    {
      "anonymous": false,
      "inputs": [
        {
          "indexed": false,
          "internalType": "uint256",
          "name": "id",
          "type": "uint256"
        },
        {
          "indexed": false,
          "internalType": "string",
          "name": "name",
          "type": "string"
        },
        {
          "indexed": false,
          "internalType": "uint256",
          "name": "price",
          "type": "uint256"
        },
        {
          "indexed": false,
          "internalType": "address payable",
          "name": "owner",
          "type": "address"
        },
        {
          "indexed": false,
          "internalType": "bool",
          "name": "purchased",
          "type": "bool"
        }
      ],
      "name": "ProductCreated",
      "type": "event"
    },
    {
      "anonymous": false,
      "inputs": [
        {
          "indexed": false,
          "internalType": "uint256",
          "name": "id",
          "type": "uint256"
        },
        {
          "indexed": false,
          "internalType": "string",
          "name": "name",
          "type": "string"
        },
        {
          "indexed": false,
          "internalType": "uint256",
          "name": "price",
          "type": "uint256"
        },
        {
          "indexed": false,
          "internalType": "address payable",
          "name": "owner",
          "type": "address"
        },
        {
          "indexed": false,
          "internalType": "bool",
          "name": "purchased",
          "type": "bool"
        }
      ],
      "name": "ProductPurchased",
      "type": "event"
    },
    {
      "inputs": [],
      "name": "name",
      "outputs": [
        {
          "internalType": "string",
          "name": "",
          "type": "string"
        }
      ],
      "stateMutability": "view",
      "type": "function",
      "constant": true
    },
    {
      "inputs": [
        {
          "internalType": "uint256",
          "name": "",
          "type": "uint256"
        }
      ],
      "name": "products",
      "outputs": [
        {
          "internalType": "uint256",
          "name": "id",
          "type": "uint256"
        },
        {
          "internalType": "string",
          "name": "name",
          "type": "string"
        },
        {
          "internalType": "uint256",
          "name": "price",
          "type": "uint256"
        },
        {
          "internalType": "address payable",
          "name": "owner",
          "type": "address"
        },
        {
          "internalType": "bool",
          "name": "purchased",
          "type": "bool"
        }
      ],
      "stateMutability": "view",
      "type": "function",
      "constant": true
    },
    {
      "inputs": [],
      "name": "productsCount",
      "outputs": [
        {
          "internalType": "uint256",
          "name": "",
          "type": "uint256"
        }
      ],
      "stateMutability": "view",
      "type": "function",
      "constant": true
    },
    {
      "inputs": [
        {
          "internalType": "uint256",
          "name": "_id",
          "type": "uint256"
        },
        {
          "internalType": "uint256",
          "name": "_newPrice",
          "type": "uint256"
        }
      ],
      "name": "updatePrice",
      "outputs": [
        {
          "internalType": "bool",
          "name": "",
          "type": "bool"
        }
      ],
      "stateMutability": "nonpayable",
      "type": "function"
    },
    {
      "inputs": [
        {
          "internalType": "string",
          "name": "_name",
          "type": "string"
        },
        {
          "internalType": "uint256",
          "name": "_price",
          "type": "uint256"
        }
      ],
      "name": "createProduct",
      "outputs": [],
      "stateMutability": "nonpayable",
      "type": "function"
    },
    {
      "inputs": [
        {
          "internalType": "uint256",
          "name": "_id",
          "type": "uint256"
        }
      ],
      "name": "purchaseProduct",
      "outputs": [],
      "stateMutability": "payable",
      "type": "function",
      "payable": true
    }
  ],
  "bytecode": "0x608060405260006001553480156200001657600080fd5b506040518060400160405280601081526020017f44617070204d61726b6574706c6163650000000000000000000000000000000081525060009080519060200190620000649291906200006b565b5062000180565b82805462000079906200014a565b90600052602060002090601f0160209004810192826200009d5760008555620000e9565b82601f10620000b857805160ff1916838001178555620000e9565b82800160010185558215620000e9579182015b82811115620000e8578251825591602001919060010190620000cb565b5b509050620000f89190620000fc565b5090565b5b8082111562000117576000816000905550600101620000fd565b5090565b7f4e487b7100000000000000000000000000000000000000000000000000000000600052602260045260246000fd5b600060028204905060018216806200016357607f821691505b602082108114156200017a57620001796200011b565b5b50919050565b61113580620001906000396000f3fe6080604052600436106100555760003560e01c806306fdde031461005a57806338e76a03146100855780637acc0b20146100a157806382367b2d146100e2578063e0df7bb61461011f578063e9300c6c1461014a575b600080fd5b34801561006657600080fd5b5061006f610173565b60405161007c9190610a59565b60405180910390f35b61009f600480360381019061009a9190610ac5565b610201565b005b3480156100ad57600080fd5b506100c860048036038101906100c39190610ac5565b61062e565b6040516100d9959493929190610b5d565b60405180910390f35b3480156100ee57600080fd5b5061010960048036038101906101049190610bb7565b610719565b6040516101169190610bf7565b60405180910390f35b34801561012b57600080fd5b50610134610740565b6040516101419190610c12565b60405180910390f35b34801561015657600080fd5b50610171600480360381019061016c9190610d62565b610746565b005b6000805461018090610ded565b80601f01602080910402602001604051908101604052809291908181526020018280546101ac90610ded565b80156101f95780601f106101ce576101008083540402835291602001916101f9565b820191906000526020600020905b8154815290600101906020018083116101dc57829003601f168201915b505050505081565b6000600260008381526020019081526020016000206040518060a00160405290816000820154815260200160018201805461023b90610ded565b80601f016020809104026020016040519081016040528092919081815260200182805461026790610ded565b80156102b45780601f10610289576101008083540402835291602001916102b4565b820191906000526020600020905b81548152906001019060200180831161029757829003601f168201915b50505050508152602001600282015481526020016003820160009054906101000a900473ffffffffffffffffffffffffffffffffffffffff1673ffffffffffffffffffffffffffffffffffffffff1673ffffffffffffffffffffffffffffffffffffffff1681526020016003820160149054906101000a900460ff1615151515815250509050600081606001519050816080015115610388576040517f08c379a000000000000000000000000000000000000000000000000000000000815260040161037f90610e91565b60405180910390fd5b600082600001511180156103a25750600154826000015111155b6103e1576040517f08c379a00000000000000000000000000000000000000000000000000000000081526004016103d890610f23565b60405180910390fd5b8160400151341015610428576040517f08c379a000000000000000000000000000000000000000000000000000000000815260040161041f90610fb5565b60405180910390fd5b3373ffffffffffffffffffffffffffffffffffffffff168173ffffffffffffffffffffffffffffffffffffffff161415610497576040517f08c379a000000000000000000000000000000000000000000000000000000000815260040161048e90611021565b60405180910390fd5b33826060019073ffffffffffffffffffffffffffffffffffffffff16908173ffffffffffffffffffffffffffffffffffffffff16815250506001826080019015159081151581525050816002600085815260200190815260200160002060008201518160000155602082015181600101908051906020019061051a92919061091d565b506040820151816002015560608201518160030160006101000a81548173ffffffffffffffffffffffffffffffffffffffff021916908373ffffffffffffffffffffffffffffffffffffffff16021790555060808201518160030160146101000a81548160ff0219169083151502179055509050508073ffffffffffffffffffffffffffffffffffffffff166108fc349081150290604051600060405180830381858888f193505050501580156105d5573d6000803e3d6000fd5b507f79558d0d7d4d900e2f15c4cc0a665f1acdbe415e44de900ecdd1e5bf12b56f4e82600001518360200151846040015185606001518660800151604051610621959493929190610b5d565b60405180910390a1505050565b600260205280600052604060002060009150905080600001549080600101805461065790610ded565b80601f016020809104026020016040519081016040528092919081815260200182805461068390610ded565b80156106d05780601f106106a5576101008083540402835291602001916106d0565b820191906000526020600020905b8154815290600101906020018083116106b357829003601f168201915b5050505050908060020154908060030160009054906101000a900473ffffffffffffffffffffffffffffffffffffffff16908060030160149054906101000a900460ff16905085565b60008160026000858152602001908152602001600020600201819055506001905092915050565b60015481565b600082511161078a576040517f08c379a000000000000000000000000000000000000000000000000000000000815260040161078190611067565b60405180910390fd5b600081116107cd576040517f08c379a00000000000000000000000000000000000000000000000000000000081526004016107c490611067565b60405180910390fd5b600160008154809291906107e0906110b6565b91905055506040518060a0016040528060015481526020018381526020018281526020013373ffffffffffffffffffffffffffffffffffffffff1681526020016000151581525060026000600154815260200190815260200160002060008201518160000155602082015181600101908051906020019061086292919061091d565b506040820151816002015560608201518160030160006101000a81548173ffffffffffffffffffffffffffffffffffffffff021916908373ffffffffffffffffffffffffffffffffffffffff16021790555060808201518160030160146101000a81548160ff0219169083151502179055509050507fbc59c0c8165864dcceb377dd07d8f431d4303f8e501cb0a0374a10cc68d718366001548383336000604051610911959493929190610b5d565b60405180910390a15050565b82805461092990610ded565b90600052602060002090601f01602090048101928261094b5760008555610992565b82601f1061096457805160ff1916838001178555610992565b82800160010185558215610992579182015b82811115610991578251825591602001919060010190610976565b5b50905061099f91906109a3565b5090565b5b808211156109bc5760008160009055506001016109a4565b5090565b600081519050919050565b600082825260208201905092915050565b60005b838110156109fa5780820151818401526020810190506109df565b83811115610a09576000848401525b50505050565b6000601f19601f8301169050919050565b6000610a2b826109c0565b610a3581856109cb565b9350610a458185602086016109dc565b610a4e81610a0f565b840191505092915050565b60006020820190508181036000830152610a738184610a20565b905092915050565b6000604051905090565b600080fd5b600080fd5b6000819050919050565b610aa281610a8f565b8114610aad57600080fd5b50565b600081359050610abf81610a99565b92915050565b600060208284031215610adb57610ada610a85565b5b6000610ae984828501610ab0565b91505092915050565b610afb81610a8f565b82525050565b600073ffffffffffffffffffffffffffffffffffffffff82169050919050565b6000610b2c82610b01565b9050919050565b610b3c81610b21565b82525050565b60008115159050919050565b610b5781610b42565b82525050565b600060a082019050610b726000830188610af2565b8181036020830152610b848187610a20565b9050610b936040830186610af2565b610ba06060830185610b33565b610bad6080830184610b4e565b9695505050505050565b60008060408385031215610bce57610bcd610a85565b5b6000610bdc85828601610ab0565b9250506020610bed85828601610ab0565b9150509250929050565b6000602082019050610c0c6000830184610b4e565b92915050565b6000602082019050610c276000830184610af2565b92915050565b600080fd5b600080fd5b7f4e487b7100000000000000000000000000000000000000000000000000000000600052604160045260246000fd5b610c6f82610a0f565b810181811067ffffffffffffffff82111715610c8e57610c8d610c37565b5b80604052505050565b6000610ca1610a7b565b9050610cad8282610c66565b919050565b600067ffffffffffffffff821115610ccd57610ccc610c37565b5b610cd682610a0f565b9050602081019050919050565b82818337600083830152505050565b6000610d05610d0084610cb2565b610c97565b905082815260208101848484011115610d2157610d20610c32565b5b610d2c848285610ce3565b509392505050565b600082601f830112610d4957610d48610c2d565b5b8135610d59848260208601610cf2565b91505092915050565b60008060408385031215610d7957610d78610a85565b5b600083013567ffffffffffffffff811115610d9757610d96610a8a565b5b610da385828601610d34565b9250506020610db485828601610ab0565b9150509250929050565b7f4e487b7100000000000000000000000000000000000000000000000000000000600052602260045260246000fd5b60006002820490506001821680610e0557607f821691505b60208210811415610e1957610e18610dbe565b5b50919050565b7f596f752063616e27742062757920746869732e2050726f64756374206973206160008201527f6c726561647920736f6c64000000000000000000000000000000000000000000602082015250565b6000610e7b602b836109cb565b9150610e8682610e1f565b604082019050919050565b60006020820190508181036000830152610eaa81610e6e565b9050919050565b7f596f752063616e27742062757920746869732e20496e636f727263742070726f60008201527f647563742e696400000000000000000000000000000000000000000000000000602082015250565b6000610f0d6027836109cb565b9150610f1882610eb1565b604082019050919050565b60006020820190508181036000830152610f3c81610f00565b9050919050565b7f596f752063616e27742062757920746869732e204e6f7420656e6f756768204560008201527f7468000000000000000000000000000000000000000000000000000000000000602082015250565b6000610f9f6022836109cb565b9150610faa82610f43565b604082019050919050565b60006020820190508181036000830152610fce81610f92565b9050919050565b7f596f752063616e27742062757920796f7572206f776e2070726f647563740000600082015250565b600061100b601e836109cb565b915061101682610fd5565b602082019050919050565b6000602082019050818103600083015261103a81610ffe565b9050919050565b50565b60006110516000836109cb565b915061105c82611041565b600082019050919050565b6000602082019050818103600083015261108081611044565b9050919050565b7f4e487b7100000000000000000000000000000000000000000000000000000000600052601160045260246000fd5b60006110c182610a8f565b91507fffffffffffffffffffffffffffffffffffffffffffffffffffffffffffffffff8214156110f4576110f3611087565b5b60018201905091905056fea26469706673582212202794f8c9e412b2a9be9bf1d8a5fe74425d30a9147dd425012c760c734401414564736f6c634300080b0033",
  "immutableReferences": {},
  "source": "pragma solidity >=0.8.2;\n\ncontract Marketplace {\n    string public name;\n    uint256 public productsCount = 0;\n    mapping(uint256 => Product) public products;\n\n    struct Product {\n        uint256 id;\n        string name;\n        uint256 price;\n        address payable owner;\n        bool purchased;\n    }\n\n    event ProductCreated(\n        uint256 id,\n        string name,\n        uint256 price,\n        address payable owner,\n        bool purchased\n    );\n\n    event ProductPurchased(\n        uint256 id,\n        string name,\n        uint256 price,\n        address payable owner,\n        bool purchased\n    );\n\n    constructor() {\n        name = \"Dapp Marketplace\";\n    }\n\n    function updatePrice(uint _id, uint _newPrice) public returns (bool) {\n        products[_id].price = _newPrice;\n        return true;\n    }\n\n    function createProduct(string memory _name, uint256 _price) public {\n        // make sure the parameters are correct\n        require(bytes(_name).length > 0, \"\");\n        require(_price > 0, \"\");\n\n        // increment product count\n        productsCount++;\n\n        // create product\n        products[productsCount] = Product(\n            productsCount,\n            _name,\n            _price,\n            payable(msg.sender),\n            false\n        );\n\n        // trigger an event\n        emit ProductCreated(\n            productsCount,\n            _name,\n            _price,\n            payable(msg.sender),\n            false\n        );\n    }\n\n    function purchaseProduct(uint256 _id) public payable {\n        // Fetch the product\n        Product memory _product = products[_id];\n\n        // Fetch the owner\n        address payable _seller = _product.owner;\n\n        // Make sure the product is valid\n        require(\n            !_product.purchased,\n            \"You can't buy this. Product is already sold\"\n        );\n        require(\n            _product.id > 0 && _product.id <= productsCount,\n            \"You can't buy this. Incorrct product.id\"\n        );\n        require(\n            msg.value >= _product.price,\n            \"You can't buy this. Not enough Eth\"\n        );\n        require(_seller != msg.sender, \"You can't buy your own product\");\n\n        // Transfer ownership to the buyer\n        _product.owner = payable(msg.sender);\n        _product.purchased = true;\n\n        // Mark as purchased\n        products[_id] = _product;\n\n        // Pay to the seller\n        _seller.transfer(msg.value);\n\n        // trigger an event\n        emit ProductPurchased(\n            _product.id,\n            _product.name,\n            _product.price,\n            _product.owner,\n            _product.purchased\n        );\n    }\n}\n",
  "sourcePath": "/Users/jorgeandres/Documents/workspace/blockchain/marketplace_simple_repo/src/contracts/Marketplace.sol",
  "compiler": {
    "name": "solc",
    "version": "0.8.11+commit.d7f03943.Emscripten.clang"
  },
  "schemaVersion": "3.4.4",
  "updatedAt": "2022-01-17T09:45:08.469Z",
  "networkType": "ethereum",
  "devdoc": {
    "kind": "dev",
    "methods": {},
    "version": 1
  },
  "userdoc": {
    "kind": "user",
    "methods": {},
    "version": 1
  }
}